S016000050726F796563746F5F41746D656C2E7372656367
S11300000C949B000C94B8000C94B8000C94B800A9
S11300100C94B8000C94B8000C94B8000C94B8007C
S11300200C94B8000C94B8000C94B8000C94B8006C
S11300300C94B8000C9401050C94B8000C94B8000E
S11300400C94B8000C94B8000C942E050C94B800D1
S11300500C94B8000C94B8000C94B8000C94B8003C
S11300600C94B8000C94B8001104FC03FF030204C0
S1130070050408040B040E04036EDB363D9A9999BB
S1130080993DABAAAA2A3E000000803F072C7AA51E
S1130090BA6CC590DA3B9365FC8BBC53F810FD3CFD
S11300A05692834DBD879D3AB63DCBC9BF5BBE73A7
S11300B0DA0FC93F07634236B79BD8A71A39685687
S11300C018AEBAAB558C1D3CB7CC5763BD6DEDFD76
S11300D0753EF6177231BF000000803F0800000033
S11300E0BE922449123EABAAAA2ABECDCCCC4C3E29
S11300F000000080BEABAAAAAA3E00000000BF0018
S11301000000803F0000000000084178D3BB438713
S1130110D1133D190E3CC3BD4282AD2B3E68EC8227
S113012076BED98FE1A93E4C80EFFFBE01C4FF7FAC
S11301303F000000000011241FBECFEFD8E0DEBF57
S1130140CDBF11E0A0E0B1E0E8EAF4E102C005901F
S11301500D92A233B107D9F721E0A2E3B1E001C0C7
S11301601D92A035B207E1F70E9459040C94520A7B
S11301700C9400006150710920E030E00EC0DC01F5
S1130180A20FB31F4C91FC01E60FF71F50815C9343
S113019040832F5F3F4F61507109261737077CF367
S11301A008950F931F93CF93DF938B019A01C0E0BF
S11301B0D0E00CC0F801EC0FFD1F6AE070E00E9473
S11301C0DA09805D8083862F972F2196009791F717
S11301D006C0F801EC0FFD1F80E380832196C2174F
S11301E0D307BCF3BE01C8010E94BA00F801EC0FAA
S11301F0FD1F1082CE01DF91CF911F910F910895C1
S11302004F925F926F927F928F929F92AF92BF9222
S1130210EF92FF920F931F93CF93DF932B013C0137
S11302207A0189010E947A064B015C01072E000CB9
S1130230880B990B0E94B2069B01AC01C301B20169
S11302400E947B052B013C0140E050E0B701C40152
S11302500E94D100EC010115110529F1F701E80F05
S1130260F91F8EE28083B801012E000C880B990BD4
S11302700E94B2069B01AC0160E070E080E291E470
S11302800E942F089B01AC01C301B2010E94C20766
S11302902196CE0DDF1D0E947A06DC01CB01A80158
S11302A0BE010E94D100DF91CF911F910F91FF9069
S11302B0EF90BF90AF909F908F907F906F905F90E2
S11302C04F90089580E480937C0087E880937A00BF
S11302D010927B0083E080937E0008951092C0000A
S11302E088E98093C10086E08093C20087E690E0AD
S11302F09093C5008093C4000895ECE7F0E09081EA
S1130300907F90839081892B8083EAE7F0E080815D
S11303108064808380917A0086FDFCCF60917800B0
S11303207091790080E090E00E94B00620E030E017
S113033040E85AE30E94C20720E030E040EA50E47B
S11303400E94C2070895CF92DF92EF92FF9241304C
S1130350B9F0423031F0C12CD12C7601A7019601BD
S11303601DC00F2EFBEFCF2EFAE3DF2EF0EBEF2EA6
S1130370FEE3FF2EF02D29E738E548ED5FE30EC0DC
S11303800F2EF6EDCF2EF5ECDF2EFDEAEF2EFEE379
S1130390FF2EF02D23EB3BE74AED5FE30E947B0544
S11303A0A70196010E940806FF90EF90DF90CF907E
S11303B00895CF92DF92EF92FF924130B9F042302C
S11303C031F0C12CD12C7601A70196011DC00F2E4E
S11303D0F9EECF2EF7EBDF2EFFEAEF2EFEE3FF2E32
S11303E0F02D2EE633EA49ED5FE30EC00F2EF8E957
S11303F0CF2EFDEDDF2EF3EBEF2EFEE3FF2EF02DDF
S113040027EB31ED48ED5FE30E947B05A7019601E0
S11304100E940806FF90EF90DF90CF900895CF924E
S1130420DF92EF92FF926B017C0120E030E040E824
S11304305FE30E94BD0718165CF020E030E040E85E
S11304405FEBC701B6010E940306882394F409C038
S11304500F2EC12CD12CF0E8EF2EFFE3FF2EF02D50
S113046008C00F2EC12CD12CF0E8EF2EFFEBFF2E8D
S1130470F02DC701B601FF90EF90DF90CF90089563
S11304808F929F92AF92BF92CF92DF92EF92FF92A0
S11304900F93CF9349015A01402F0E94A3016B018E
S11304A07C01402FC501B4010E94D9014B015C01BC
S11304B0C701B6010E940F026B017C01C501B401A2
S11304C00E940F024B015C0120E030E0A901C7014A
S11304D0B6010E94BD0788235CF020E030E0A9014A
S11304E0C501B4010E94BD07882324F4C0E003C001
S11304F0C0E001C0C1E020E030E0A901C701B601BD
S11305000E940306882354F420E030E0A901C501C9
S1130510B4010E94BD0788230CF0C2E020E030E063
S1130520A901C701B6010E940306882354F420E000
S113053030E0A901C501B4010E94030688230CF42C
S1130540C3E020E030E0A901C701B6010E94BD0765
S1130550882354F020E030E0A901C501B4010E94D1
S1130560030688230CF4C4E0C230D1F018F4C1307F
S113057031F045C0C33001F1C43081F140C0C7013E
S1130580B6010E94E80520EE3EE245E652E40E94F0
S1130590C20720E030E044EB52E40E947C0533C003
S11305A0C701B6019F770E946A0520EE3EE245E648
S11305B052E40E94C20727C0C701B6019F770E9478
S11305C0E80520EE3EE245E652E40E94C20720E040
S11305D030E047E853E40E947C0515C0C701B6012A
S11305E00E946A0520EE3EE245E652E40E94C207FC
S11305F020E030E044E353E40E947C0504C060E062
S113060070E080E89FE3CF910F91FF90EF90DF902F
S1130610CF90BF90AF909F908F900895DC01FC0124
S113062001900020E9F73197AF01481B590B90E086
S113063080E026C0811112C0FD01E20FF31F80810A
S11306408E3259F480E38093C600EFE9FFE03197DE
S1130650F1F700C0000081E001C081E0FD01E20F7C
S1130660F31F2081211102C020E2208320812093E6
S1130670C600EFE9FFE03197F1F700C000009F5F8B
S1130680292F30E024173507A8F28FE99FE001975E
S1130690F1F700C000000895CF92DF92EF92FF922D
S11306A06B017C01CA01B901A70196010E947B0577
S11306B09F77FF90EF90DF90CF900895CF92DF92D5
S11306C0EF92FF921F93CF93DF93EC016A017B01BA
S11306D068E171E00E94490A892B61F420E030E06E
S11306E040E051E4C701B6010E94BD07882324F409
S11306F010E003C010E001C011E063E071E0CE013E
S11307000E94490A892B59F420E030E040E151E489
S1130710C701B6010E94030618160CF012E066E049
S113072071E0CE010E94490A892B59F420E030E09F
S113073040E151E4C701B6010E94BD0788230CF0D3
S113074013E069E071E0CE010E94490A892B59F453
S113075020E030E048EA51E4C701B6010E94BD0739
S113076088230CF014E06CE071E0CE010E94490A89
S1130770892B59F420E030E040E252E4C701B6018D
S11307800E94BD0788230CF015E06FE071E0CE01F4
S11307900E94490A892B59F420E030E048EA51E4E8
S11307A0C701B6010E94030618160CF016E062E1B8
S11307B071E0CE010E94490A892B59F420E030E00F
S11307C040EE50E4C701B6010E94030618160CF06F
S11307D017E065E171E0CE010E94490A892B09F412
S11307E018E0812F90E0FC013197E830F105D8F44E
S11307F0EC5CFF4F0C940D0AC6E0D1E014C0C9E0D4
S1130800D1E011C0CCE0D1E00EC0CFE0D1E00BC00C
S1130810C2E1D1E008C0C5E1D1E005C0C8E1D1E042
S113082002C0C3E0D1E0CE01DF91CF911F91FF90D0
S1130830EF90DF90CF900895E6ECF0E08DE08083B8
S11308408FE99FE00197F1F700C000008AE0808300
S11308508FE99FE00197F1F700C000000895CF935E
S1130860DF93EA010E940001CE010E940E03DF9192
S1130870CF910895282F30E0322F2227032E000C29
S1130880440B550B60E074E284EF90E00E94EE09A3
S1130890C9018095909508951092800016BA0E941F
S11308A03A04909385008093840081E080936F00E4
S11308B0089580E284B90E9462010E946E018091D1
S11308C000010E944C047894809133018130E1F757
S11308D01092330180E00E947D016093390170938E
S11308E03A0180933B0190933C0181E00E947D0199
S11308F09B01AC01609345017093460180934701CD
S1130900909348016091390170913A0180913B01C3
S113091090913C0102E00E94400260933D0170937B
S11309203E0180933F019093400182E00E947D014B
S11309306093390170933A0180933B0190933C0199
S113094083E00E947D019B01AC016093450170939B
S11309504601809347019093480160913901709159
S11309603A0180913B0190913C0101E00E944002D8
S11309706093410170934201809343019093440139
S113098020913D0130913E0140913F015091400141
S11309900E944C03AB01BC014093350150933601D6
S11309A060933701709338018091010190910201A5
S11309B00E945E0390930201809301018BE191E018
S11309C00E940E03609135017091360180913701C8
S11309D09091380122E030E049E451E00E942F0474
S11309E085E291E00E940E03809101019091020141
S11309F00E940E0380E391E00E940E030E941C04F7
S1130A0063CF1F920F920FB60F9211242F933F932F
S1130A104F935F936F937F938F939F93AF93BF9302
S1130A20EF93FF93809100010E943A049093850014
S1130A308093840081E080933301FF91EF91BF9113
S1130A40AF919F918F917F916F915F914F913F9162
S1130A502F910F900FBE0F901F9018951F920F9219
S1130A600FB60F9211248F939F93EF93FF9380916E
S1130A70C600809334018FE99FE00197F1F700C02D
S1130A80000080913401813319F491E09093320194
S1130A90823311F41092320180913201813049F491
S1130AA0E1E8F0E080818460808385B1806285B96B
S1130AB008C0E1E8F0E080818B7F808385B18F7D81
S1130AC085B9FF91EF919F918F910F900FBE0F9079
S1130AD01F9018959F939F770E94ED060F9000201A
S1130AE042F49058A2EA2AED3FE049E450E40E941F
S1130AF093050C9483075058BB27AA270E9493059B
S1130B000C9483070E94750738F00E947C0720F03C
S1130B1039F49F3F19F426F40C9437070EF4E0954A
S1130B20E7FB0C943107E92F0E94940758F3BA1796
S1130B30620773078407950720F079F4A6F50C94EF
S1130B40B6070EF4E0950B2EBA2FA02D0B01B901B8
S1130B5090010C01CA01A0011124FF27591B99F02F
S1130B60593F50F4503E68F11A16F040A22F232F3B
S1130B70342F4427585FF3CF469537952795A7958B
S1130B80F0405395C9F77EF41F16BA0B620B730B32
S1130B90840BBAF09150A1F0FF0FBB1F661F771FA3
S1130BA0881FC2F70EC0BA0F621F731F841F48F458
S1130BB0879577956795B795F7959E3F08F0B0CFE1
S1130BC09395880F08F09927EE0F979587950895C8
S1130BD09F939F77EEE389379E0728F4E8E7F0E0D8
S1130BE00E9461070CC00E94ED069058A2EA2AED0B
S1130BF03FE049EC5FE30E9493050E9483070F9056
S1130C0007FC905808950E940D0708F481E00895A8
S1130C100E941C060C9483070E947C0758F00E94D3
S1130C20750740F029F45F3F29F00C943107511106
S1130C300C94B7070C9437070E94940768F3992320
S1130C40B1F3552391F3951B550BBB27AA276217C4
S1130C507307840738F09F5F5F4F220F331F441FD1
S1130C60AA1FA9F335D00E2E3AF0E0E832D0915005
S1130C705040E695001CCAF72BD0FE2F29D0660FF2
S1130C80771F881FBB1F261737074807AB07B0E835
S1130C9009F0BB0B802DBF01FF2793585F4F3AF03B
S1130CA09E3F510578F00C9431070C94B7075F3FD1
S1130CB0E4F3983ED4F3869577956795B795F795C1
S1130CC09F5FC9F7880F911D9695879597F90895A9
S1130CD0E1E0660F771F881FBB1F62177307840745
S1130CE0BA0720F0621B730B840BBA0BEE1F88F754
S1130CF0E09508950E9481066894B1110C94B70799
S1130D0008950E949C0788F09F5798F0B92F99275F
S1130D10B751B0F0E1F0660F771F881F991F1AF0E2
S1130D20BA95C9F714C0B13091F00E94B607B1E08A
S1130D3008950C94B607672F782F8827B85F39F089
S1130D40B93FCCF3869577956795B395D9F73EF47B
S1130D5090958095709561957F4F8F4F9F4F089523
S1130D60E89409C097FB3EF4909580957095619541
S1130D707F4F8F4F9F4F9923A9F0F92F96E9BB27F7
S1130D809395F695879577956795B795F111F8CF73
S1130D90FAF4BB0F11F460FF1BC06F5F7F4F8F4FDE
S1130DA09F4F16C0882311F096E911C0772321F0D4
S1130DB09EE8872F762F05C0662371F096E8862F6C
S1130DC070E060E02AF09A95660F771F881FDAF7C3
S1130DD0880F9695879597F90895DF93CF931F937E
S1130DE00F938B01EC01ECE8F0E00E943A070E94BB
S1130DF083079801AE018B01EC0160E070E080E8AC
S1130E009FE30E947B050E9485089801AE010F9123
S1130E101F91CF91DF910C94D507990F0008550FBE
S1130E20AA0BE0E8FEEF16161706E807F907C0F06C
S1130E3012161306E407F50798F0621B730B840B74
S1130E40950B39F40A2661F0232B242B252B21F44E
S1130E5008950A2609F4A140A6958FEF811D811DEE
S1130E60089597F99F6780E870E060E008959FEF28
S1130E7080EC0895DF93CF931F930F93FF92EF922B
S1130E80DF927B018C01689406C0DA2EEF010E9488
S1130E90D507FE01E894A591259135914591559189
S1130EA0A6F3EF010E949305FE019701A801DA94CD
S1130EB069F7DF90EF90FF900F911F91CF91DF9131
S1130EC008959F938F937F936F93FF93EF939B0169
S1130ED0AC010E94C207EF91FF910E943A072F9143
S1130EE03F914F915F910C94C20700240A94161607
S1130EF0170618060906089500240A941216130604
S1130F00140605060895092E0394000C11F4882391
S1130F1052F0BB0F40F4BF2B11F460FF04C06F5FAD
S1130F207F4F8F4F9F4F089557FD9058440F551F83
S1130F3059F05F3F71F04795880F97FB991F61F057
S1130F409F3F79F087950895121613061406551FCE
S1130F50F2CF4695F1DF08C0161617061806991F3A
S1130F60F1CF86957105610508940895E894BB272F
S1130F7066277727CB0197F908950E940D0708F497
S1130F808FEF08950E94D5070C9483070E9475077C
S1130F9038F00E947C0720F0952311F00C9431075F
S1130FA00C94370711240C94B7070E94940770F32C
S1130FB0959FC1F3950F50E0551F629FF001729FFA
S1130FC0BB27F00DB11D639FAA27F00DB11DAA1F09
S1130FD0649F6627B00DA11D661F829F2227B00D56
S1130FE0A11D621F739FB00DA11D621F839FA00DE1
S1130FF0611D221F749F3327A00D611D231F849F31
S1131000600D211D822F762F6A2F11249F57504087
S11310109AF0F1F088234AF0EE0FFF1FBB1F661F02
S1131020771F881F91505040A9F79E3F510580F0CB
S11310300C9431070C94B7075F3FE4F3983ED4F364
S1131040869577956795B795F795E7959F5FC1F76F
S1131050FE2B880F911D9695879597F90895FA01AF
S1131060EE0FFF1F309621053105A1F161157105C1
S113107061F48038BFE39B0749F168949038810597
S113108061F08038BFEF9B0741F099234AF5FF3F99
S1131090E1053105210519F1E8940894E795D90192
S11310A0AA2329F4AB2FBE2FF85FD0F310C0FF5F43
S11310B070F4A695E0F7F73950F019F0FF3A38F4D8
S11310C09F779F930DD00F9007FC9058089546F09A
S11310D00C94370760E070E080E89FE308954FE7E1
S11310E09F775F934F933F932F930E945E092F91B5
S11310F03F914F915F910E94C2070C94CD0819F45F
S113110016F40C9437070C94FF080E949C07B8F35C
S11311109923C9F3B6F39F57550B87FF0E940D0916
S11311200024A0E640EA900180585695979528F44B
S1131130805C660F771F881F20F026173707480743
S113114030F4621B730B840B202931294A2BA6959A
S113115017940794202531254A2758F7660F771FDF
S1131160881F20F026173707480730F4620B730BEB
S1131170840B200D311D411DA09581F7B901842FE9
S11311809158880F96958795089529F416F00C9434
S113119031070C94B6070C9437070E949C07A8F3F8
S11311A09638A0F707F80F92E8942BE33AEA48EB55
S11311B05FE70E94D8070F920F920F924DB75EB768
S11311C00F920E94A609E4EBF0E00E943A074F91C7
S11311D05F91EF91FF91E595EE1FFF1F49F0FE57D8
S11311E0E0684427EE0F441FFA95E1F74195550B4B
S11311F00E9420090F9007FE0C94140908959F3F44
S113120031F0915020F4879577956795B795880FBD
S1131210911D9695879597F9089591505040660FC2
S1131220771F881FD2F708959B01AC0160E070E03E
S113123080E89FE30C9408060C9431070C94FF0893
S11312400E949C07D8F39923C9F3940F511DA3F36B
S11312509150504094F059F0882332F0660F771F74
S1131260881F91505040C1F79E3F51052CF7880FBD
S1131270911D9695879597F908955F3FACF0983E38
S11312809CF0BB27869577956795B79508F4B16070
S11312909395C1F7BB0F58F711F460FFE8CF6F5F68
S11312A07F4F8F4F9F4FE3CF0C94B70716F00C94EA
S11312B0FF080C94370768940C9431070E949C072C
S11312C0A8F39923C1F3AEF3DF93CF931F930F9346
S11312D0FF92C92FDD2788232AF02197660F771FF5
S11312E0881FDAF720E030E040E85FEB9FE38839BD
S11312F020F0803E38F021968F770E947C05ECED3B
S1131300F0E004C00E947C05E9E0F1E00E943A07A5
S11313108B01BE01EC01FB2E6F5771097595771F88
S1131320880B990B0E94B20628E132E741E35FE3A0
S11313300E94D507AF2D9801AE01FF900F911F9128
S1131340CF91DF910E9493050C948307FA01DC018D
S1131350AA0FBB1F9B01AC01BF5728F422273327D8
S11313604427507820C0B75190F4AB2F0024469501
S113137037952795011CA395D2F3002071F0220F15
S1131380331F441FB395DAF30ED00C947B05613000
S11313907105A0E88A07B94630F49B01AC016627C1
S11313A0772788279078309621F0208331834283F1
S11313B05383089597FB072E16F4009407D077FD06
S11313C009D00E94130A07FC05D03EF4909581953C
S11313D09F4F0895709561957F4F0895052E97FB53
S11313E01EF400940E94050A57FD07D00E94270AA4
S11313F007FC03D04EF40C94050A509540953095A3
S113140021953F4F4F4F5F4F08959095809570956C
S113141061957F4F8F4F9F4F0895EE0FFF1F0590EB
S1131420F491E02D0994AA1BBB1B51E107C0AA1F2C
S1131430BB1FA617B70710F0A61BB70B881F991F71
S11314405A95A9F780959095BC01CD010895A1E224
S11314501A2EAA1BBB1BFD010DC0AA1FBB1FEE1F2A
S1131460FF1FA217B307E407F50720F0A21BB30B75
S1131470E40BF50B661F771F881F991F1A9469F7F1
S113148060957095809590959B01AC01BD01CF014D
S11314900895FB01DC018D91019080190110D9F3AD
S10B14A0990B0895F894FFCFA5
S11314A8081801414900414D004146004F50004F82
S11314B849004F4D004F46004349007B2261526F5B
S11314C864223A20002C202266617365223A2000A7
S10514D87D0091
S9030000FC
